{
  "abi": [
    {
      "anonymous": false,
      "inputs": [
        {
          "indexed": true,
          "internalType": "bytes32",
          "name": "lockId",
          "type": "bytes32"
        }
      ],
      "name": "LockClaimed",
      "type": "event"
    },
    {
      "anonymous": false,
      "inputs": [
        {
          "indexed": true,
          "internalType": "bytes32",
          "name": "lockId",
          "type": "bytes32"
        },
        {
          "indexed": true,
          "internalType": "address",
          "name": "sender",
          "type": "address"
        },
        {
          "indexed": true,
          "internalType": "address",
          "name": "recipient",
          "type": "address"
        },
        {
          "indexed": false,
          "internalType": "uint256",
          "name": "amount",
          "type": "uint256"
        },
        {
          "indexed": false,
          "internalType": "uint256",
          "name": "lockTime",
          "type": "uint256"
        },
        {
          "indexed": false,
          "internalType": "bytes32",
          "name": "hashedSecret",
          "type": "bytes32"
        }
      ],
      "name": "LockInitiated",
      "type": "event"
    },
    {
      "anonymous": false,
      "inputs": [
        {
          "indexed": true,
          "internalType": "bytes32",
          "name": "lockId",
          "type": "bytes32"
        }
      ],
      "name": "LockRefunded",
      "type": "event"
    },
    {
      "inputs": [
        {
          "internalType": "bytes32",
          "name": "lockId",
          "type": "bytes32"
        },
        {
          "internalType": "bytes32",
          "name": "secret",
          "type": "bytes32"
        }
      ],
      "name": "claim",
      "outputs": [],
      "stateMutability": "nonpayable",
      "type": "function"
    },
    {
      "inputs": [],
      "name": "getLocks",
      "outputs": [
        {
          "components": [
            {
              "internalType": "bytes32",
              "name": "hashedSecret",
              "type": "bytes32"
            },
            {
              "internalType": "address",
              "name": "sender",
              "type": "address"
            },
            {
              "internalType": "address",
              "name": "recipient",
              "type": "address"
            },
            {
              "internalType": "uint256",
              "name": "lockTime",
              "type": "uint256"
            },
            {
              "internalType": "uint256",
              "name": "amount",
              "type": "uint256"
            },
            {
              "internalType": "enum IHashedTimelockETH.State",
              "name": "state",
              "type": "uint8"
            }
          ],
          "internalType": "struct HashedTimelockETH.Lock[]",
          "name": "",
          "type": "tuple[]"
        }
      ],
      "stateMutability": "view",
      "type": "function"
    },
    {
      "inputs": [
        {
          "internalType": "bytes32",
          "name": "hashedSecret",
          "type": "bytes32"
        },
        {
          "internalType": "address",
          "name": "recipient",
          "type": "address"
        },
        {
          "internalType": "uint256",
          "name": "lockTime",
          "type": "uint256"
        }
      ],
      "name": "initiateLock",
      "outputs": [],
      "stateMutability": "payable",
      "type": "function"
    },
    {
      "inputs": [
        {
          "internalType": "bytes32",
          "name": "lockId",
          "type": "bytes32"
        }
      ],
      "name": "refund",
      "outputs": [],
      "stateMutability": "nonpayable",
      "type": "function"
    }
  ],
  "bytecode": {
    "object": "0x608060405234801561001057600080fd5b50610ae2806100206000396000f3fe60806040526004361061003f5760003560e01c806344b056ed146100445780637249fbb61461006f57806384cc9dfb14610091578063beef5d47146100b1575b600080fd5b34801561005057600080fd5b506100596100c4565b604051610066919061098a565b60405180910390f35b34801561007b57600080fd5b5061008f61008a366004610a2d565b610197565b005b34801561009d57600080fd5b5061008f6100ac366004610a46565b6103a0565b61008f6100bf366004610a68565b610611565b60606001805480602002602001604051908101604052809291908181526020016000905b8282101561018e5760008481526020908190206040805160c081018252600686029092018054835260018101546001600160a01b0390811694840194909452600281015490931690820152600380830154606083015260048301546080830152600583015491929160a084019160ff9091169081111561016a5761016a610974565b600381111561017b5761017b610974565b81525050815260200190600101906100e8565b50505050905090565b600160008281526020819052604090206005015460ff1660038111156101bf576101bf610974565b146102075760405162461bcd60e51b8152602060048201526013602482015272131bd8dac8191bd95cc81b9bdd08195e1a5cdd606a1b60448201526064015b60405180910390fd5b6000818152602081905260409020600101546001600160a01b0316331461025d5760405162461bcd60e51b815260206004820152600a6024820152692737ba1039b2b73232b960b11b60448201526064016101fe565b600160008281526020819052604090206005015460ff16600381111561028557610285610974565b146102c35760405162461bcd60e51b815260206004820152600e60248201526d4e6f7420726566756e6461626c6560901b60448201526064016101fe565b6000818152602081905260409020600301544210156103125760405162461bcd60e51b815260206004820152600b60248201526a151a5b59481b1bd8dad95960aa1b60448201526064016101fe565b60008181526020819052604080822060018101546004820154925191936001600160a01b039091169280156108fc02929091818181858888f19350505050158015610361573d6000803e3d6000fd5b5060058101805460ff1916600317905560405182907f650e9ed141063101895ec6b236082d97d7128680ab2c79c0f6f175fd31b4b24990600090a25050565b600160008381526020819052604090206005015460ff1660038111156103c8576103c8610974565b1461040b5760405162461bcd60e51b8152602060048201526013602482015272131bd8dac8191bd95cc81b9bdd08195e1a5cdd606a1b60448201526064016101fe565b600082815260208181526040918290208251918201849052910160408051601f198184030181529181528151602092830120600086815292839052912054146104855760405162461bcd60e51b815260206004820152600c60248201526b15dc9bdb99c81cd958dc995d60a21b60448201526064016101fe565b6000838152602081905260409020600201546001600160a01b031633146104e05760405162461bcd60e51b815260206004820152600f60248201526e15dc9bdb99c81c9958da5c1a595b9d608a1b60448201526064016101fe565b600160008481526020819052604090206005015460ff16600381111561050857610508610974565b146105475760405162461bcd60e51b815260206004820152600f60248201526e105b1c9958591e4818db185a5b5959608a1b60448201526064016101fe565b60008381526020819052604090206003015442106105915760405162461bcd60e51b8152602060048201526007602482015266115e1c1a5c995960ca1b60448201526064016101fe565b600281015460048201546040516001600160a01b039092169181156108fc0291906000818181858888f193505050501580156105d1573d6000803e3d6000fd5b5060058101805460ff1916600217905560405183907f0c1e4256fb039c95826635b403ce593b11b6334a3737b85b4d7f754442f2fa5290600090a2505050565b6040516bffffffffffffffffffffffff1933606090811b8216602084015284901b166034820152346048820152606881018290526088810184905260009060a80160408051601f19818403018152919052805160209091012090506000808281526020819052604090206005015460ff16600381111561069357610693610974565b146106d65760405162461bcd60e51b81526020600482015260136024820152724c6f636b20616c72656164792065786973747360681b60448201526064016101fe565b60006040518060c00160405280868152602001336001600160a01b03168152602001856001600160a01b031681526020018481526020013481526020016001600381111561072657610726610974565b9052600083815260208181526040918290208351815590830151600180830180546001600160a01b039384166001600160a01b0319918216179091559385015160028401805491909316941693909317905560608301516003808301919091556080840151600483015560a0840151600583018054959650869593949193909260ff19909116919084908111156107bf576107bf610974565b021790555050600180548082018255600082905283517fb10e2d527612073b26eecdfd717e6a320cf44b4afac2b0732d9fcbe2b7fa0cf6600690920291820190815560208501517fb10e2d527612073b26eecdfd717e6a320cf44b4afac2b0732d9fcbe2b7fa0cf7830180546001600160a01b03199081166001600160a01b039384161790915560408701517fb10e2d527612073b26eecdfd717e6a320cf44b4afac2b0732d9fcbe2b7fa0cf885018054909216921691909117905560608501517fb10e2d527612073b26eecdfd717e6a320cf44b4afac2b0732d9fcbe2b7fa0cf983015560808501517fb10e2d527612073b26eecdfd717e6a320cf44b4afac2b0732d9fcbe2b7fa0cfa83015560a08501517fb10e2d527612073b26eecdfd717e6a320cf44b4afac2b0732d9fcbe2b7fa0cfb90920180548695509193909160ff19169083600381111561091657610916610974565b02179055505060408051348152602081018690529081018790526001600160a01b0386169150339084907f2b5d95d244f7aa3c3b794971a4b8703b7167ca8cd2fb4dd7388caf6fe9c1e5e39060600160405180910390a45050505050565b634e487b7160e01b600052602160045260246000fd5b60208082528251828201819052600091906040908185019086840185805b83811015610a1f57825180518652878101516001600160a01b0390811689880152878201511687870152606080820151908701526080808201519087015260a090810151906004808310610a0957634e487b7160e01b855260218152602485fd5b5086015260c090940193918601916001016109a8565b509298975050505050505050565b600060208284031215610a3f57600080fd5b5035919050565b60008060408385031215610a5957600080fd5b50508035926020909101359150565b600080600060608486031215610a7d57600080fd5b8335925060208401356001600160a01b0381168114610a9b57600080fd5b92959294505050604091909101359056fea2646970667358221220c1813fb8e6964217a42258b14ec7c7185f7502cc727b3ec281755552f0f5070364736f6c634300080d0033",
    "linkReferences": {}
  },
  "methodIdentifiers": {
    "claim(bytes32,bytes32)": "84cc9dfb",
    "getLocks()": "44b056ed",
    "initiateLock(bytes32,address,uint256)": "beef5d47",
    "refund(bytes32)": "7249fbb6"
  },
  "id": 20
}